{
  "_format": "hh-sol-artifact-1",
  "contractName": "Podcasts",
  "sourceName": "contracts/Podcasts.sol",
  "abi": [
    {
      "inputs": [],
      "stateMutability": "nonpayable",
      "type": "constructor"
    },
    {
      "anonymous": false,
      "inputs": [
        {
          "indexed": true,
          "internalType": "address",
          "name": "owner",
          "type": "address"
        },
        {
          "indexed": true,
          "internalType": "address",
          "name": "approved",
          "type": "address"
        },
        {
          "indexed": true,
          "internalType": "uint256",
          "name": "tokenId",
          "type": "uint256"
        }
      ],
      "name": "Approval",
      "type": "event"
    },
    {
      "anonymous": false,
      "inputs": [
        {
          "indexed": true,
          "internalType": "address",
          "name": "owner",
          "type": "address"
        },
        {
          "indexed": true,
          "internalType": "address",
          "name": "operator",
          "type": "address"
        },
        {
          "indexed": false,
          "internalType": "bool",
          "name": "approved",
          "type": "bool"
        }
      ],
      "name": "ApprovalForAll",
      "type": "event"
    },
    {
      "anonymous": false,
      "inputs": [
        {
          "indexed": false,
          "internalType": "uint256",
          "name": "id",
          "type": "uint256"
        }
      ],
      "name": "NFTMade",
      "type": "event"
    },
    {
      "anonymous": false,
      "inputs": [
        {
          "indexed": false,
          "internalType": "uint256",
          "name": "id",
          "type": "uint256"
        }
      ],
      "name": "PodcastMade",
      "type": "event"
    },
    {
      "anonymous": false,
      "inputs": [
        {
          "indexed": true,
          "internalType": "address",
          "name": "from",
          "type": "address"
        },
        {
          "indexed": true,
          "internalType": "address",
          "name": "to",
          "type": "address"
        },
        {
          "indexed": true,
          "internalType": "uint256",
          "name": "tokenId",
          "type": "uint256"
        }
      ],
      "name": "Transfer",
      "type": "event"
    },
    {
      "inputs": [
        {
          "internalType": "uint256",
          "name": "",
          "type": "uint256"
        }
      ],
      "name": "all",
      "outputs": [
        {
          "internalType": "string",
          "name": "name",
          "type": "string"
        },
        {
          "internalType": "string",
          "name": "link",
          "type": "string"
        },
        {
          "internalType": "uint256",
          "name": "timestamp",
          "type": "uint256"
        },
        {
          "internalType": "address",
          "name": "author",
          "type": "address"
        },
        {
          "internalType": "string",
          "name": "category",
          "type": "string"
        },
        {
          "internalType": "uint256",
          "name": "id",
          "type": "uint256"
        }
      ],
      "stateMutability": "view",
      "type": "function"
    },
    {
      "inputs": [
        {
          "internalType": "address",
          "name": "to",
          "type": "address"
        },
        {
          "internalType": "uint256",
          "name": "tokenId",
          "type": "uint256"
        }
      ],
      "name": "approve",
      "outputs": [],
      "stateMutability": "nonpayable",
      "type": "function"
    },
    {
      "inputs": [
        {
          "internalType": "address",
          "name": "owner",
          "type": "address"
        }
      ],
      "name": "balanceOf",
      "outputs": [
        {
          "internalType": "uint256",
          "name": "",
          "type": "uint256"
        }
      ],
      "stateMutability": "view",
      "type": "function"
    },
    {
      "inputs": [
        {
          "internalType": "uint256",
          "name": "",
          "type": "uint256"
        }
      ],
      "name": "fiction",
      "outputs": [
        {
          "internalType": "string",
          "name": "name",
          "type": "string"
        },
        {
          "internalType": "string",
          "name": "link",
          "type": "string"
        },
        {
          "internalType": "uint256",
          "name": "timestamp",
          "type": "uint256"
        },
        {
          "internalType": "address",
          "name": "author",
          "type": "address"
        },
        {
          "internalType": "string",
          "name": "category",
          "type": "string"
        },
        {
          "internalType": "uint256",
          "name": "id",
          "type": "uint256"
        }
      ],
      "stateMutability": "view",
      "type": "function"
    },
    {
      "inputs": [],
      "name": "getAllPodcasts",
      "outputs": [
        {
          "components": [
            {
              "internalType": "string",
              "name": "name",
              "type": "string"
            },
            {
              "internalType": "string",
              "name": "link",
              "type": "string"
            },
            {
              "internalType": "uint256",
              "name": "timestamp",
              "type": "uint256"
            },
            {
              "internalType": "address",
              "name": "author",
              "type": "address"
            },
            {
              "internalType": "string",
              "name": "category",
              "type": "string"
            },
            {
              "internalType": "uint256",
              "name": "id",
              "type": "uint256"
            }
          ],
          "internalType": "struct Podcasts.Podcast[]",
          "name": "",
          "type": "tuple[]"
        }
      ],
      "stateMutability": "view",
      "type": "function"
    },
    {
      "inputs": [
        {
          "internalType": "uint256",
          "name": "tokenId",
          "type": "uint256"
        }
      ],
      "name": "getApproved",
      "outputs": [
        {
          "internalType": "address",
          "name": "",
          "type": "address"
        }
      ],
      "stateMutability": "view",
      "type": "function"
    },
    {
      "inputs": [],
      "name": "getFictionPodcasts",
      "outputs": [
        {
          "components": [
            {
              "internalType": "string",
              "name": "name",
              "type": "string"
            },
            {
              "internalType": "string",
              "name": "link",
              "type": "string"
            },
            {
              "internalType": "uint256",
              "name": "timestamp",
              "type": "uint256"
            },
            {
              "internalType": "address",
              "name": "author",
              "type": "address"
            },
            {
              "internalType": "string",
              "name": "category",
              "type": "string"
            },
            {
              "internalType": "uint256",
              "name": "id",
              "type": "uint256"
            }
          ],
          "internalType": "struct Podcasts.Podcast[]",
          "name": "",
          "type": "tuple[]"
        }
      ],
      "stateMutability": "view",
      "type": "function"
    },
    {
      "inputs": [],
      "name": "getHistoryPodcasts",
      "outputs": [
        {
          "components": [
            {
              "internalType": "string",
              "name": "name",
              "type": "string"
            },
            {
              "internalType": "string",
              "name": "link",
              "type": "string"
            },
            {
              "internalType": "uint256",
              "name": "timestamp",
              "type": "uint256"
            },
            {
              "internalType": "address",
              "name": "author",
              "type": "address"
            },
            {
              "internalType": "string",
              "name": "category",
              "type": "string"
            },
            {
              "internalType": "uint256",
              "name": "id",
              "type": "uint256"
            }
          ],
          "internalType": "struct Podcasts.Podcast[]",
          "name": "",
          "type": "tuple[]"
        }
      ],
      "stateMutability": "view",
      "type": "function"
    },
    {
      "inputs": [],
      "name": "getMiscPodcasts",
      "outputs": [
        {
          "components": [
            {
              "internalType": "string",
              "name": "name",
              "type": "string"
            },
            {
              "internalType": "string",
              "name": "link",
              "type": "string"
            },
            {
              "internalType": "uint256",
              "name": "timestamp",
              "type": "uint256"
            },
            {
              "internalType": "address",
              "name": "author",
              "type": "address"
            },
            {
              "internalType": "string",
              "name": "category",
              "type": "string"
            },
            {
              "internalType": "uint256",
              "name": "id",
              "type": "uint256"
            }
          ],
          "internalType": "struct Podcasts.Podcast[]",
          "name": "",
          "type": "tuple[]"
        }
      ],
      "stateMutability": "view",
      "type": "function"
    },
    {
      "inputs": [
        {
          "internalType": "string",
          "name": "url",
          "type": "string"
        }
      ],
      "name": "getPodcastFromLink",
      "outputs": [
        {
          "components": [
            {
              "internalType": "string",
              "name": "name",
              "type": "string"
            },
            {
              "internalType": "string",
              "name": "link",
              "type": "string"
            },
            {
              "internalType": "uint256",
              "name": "timestamp",
              "type": "uint256"
            },
            {
              "internalType": "address",
              "name": "author",
              "type": "address"
            },
            {
              "internalType": "string",
              "name": "category",
              "type": "string"
            },
            {
              "internalType": "uint256",
              "name": "id",
              "type": "uint256"
            }
          ],
          "internalType": "struct Podcasts.Podcast",
          "name": "",
          "type": "tuple"
        }
      ],
      "stateMutability": "view",
      "type": "function"
    },
    {
      "inputs": [
        {
          "internalType": "uint256",
          "name": "id",
          "type": "uint256"
        }
      ],
      "name": "getPodcastsFromId",
      "outputs": [
        {
          "components": [
            {
              "internalType": "string",
              "name": "name",
              "type": "string"
            },
            {
              "internalType": "string",
              "name": "link",
              "type": "string"
            },
            {
              "internalType": "uint256",
              "name": "timestamp",
              "type": "uint256"
            },
            {
              "internalType": "address",
              "name": "author",
              "type": "address"
            },
            {
              "internalType": "string",
              "name": "category",
              "type": "string"
            },
            {
              "internalType": "uint256",
              "name": "id",
              "type": "uint256"
            }
          ],
          "internalType": "struct Podcasts.Podcast",
          "name": "",
          "type": "tuple"
        }
      ],
      "stateMutability": "view",
      "type": "function"
    },
    {
      "inputs": [],
      "name": "getTechPodcasts",
      "outputs": [
        {
          "components": [
            {
              "internalType": "string",
              "name": "name",
              "type": "string"
            },
            {
              "internalType": "string",
              "name": "link",
              "type": "string"
            },
            {
              "internalType": "uint256",
              "name": "timestamp",
              "type": "uint256"
            },
            {
              "internalType": "address",
              "name": "author",
              "type": "address"
            },
            {
              "internalType": "string",
              "name": "category",
              "type": "string"
            },
            {
              "internalType": "uint256",
              "name": "id",
              "type": "uint256"
            }
          ],
          "internalType": "struct Podcasts.Podcast[]",
          "name": "",
          "type": "tuple[]"
        }
      ],
      "stateMutability": "view",
      "type": "function"
    },
    {
      "inputs": [
        {
          "internalType": "string",
          "name": "url",
          "type": "string"
        }
      ],
      "name": "getUserOfPodcast",
      "outputs": [
        {
          "internalType": "address",
          "name": "",
          "type": "address"
        }
      ],
      "stateMutability": "view",
      "type": "function"
    },
    {
      "inputs": [],
      "name": "getUserPodcasts",
      "outputs": [
        {
          "components": [
            {
              "internalType": "string",
              "name": "name",
              "type": "string"
            },
            {
              "internalType": "string",
              "name": "link",
              "type": "string"
            },
            {
              "internalType": "uint256",
              "name": "timestamp",
              "type": "uint256"
            },
            {
              "internalType": "address",
              "name": "author",
              "type": "address"
            },
            {
              "internalType": "string",
              "name": "category",
              "type": "string"
            },
            {
              "internalType": "uint256",
              "name": "id",
              "type": "uint256"
            }
          ],
          "internalType": "struct Podcasts.Podcast[]",
          "name": "",
          "type": "tuple[]"
        }
      ],
      "stateMutability": "view",
      "type": "function"
    },
    {
      "inputs": [
        {
          "internalType": "uint256",
          "name": "",
          "type": "uint256"
        }
      ],
      "name": "history",
      "outputs": [
        {
          "internalType": "string",
          "name": "name",
          "type": "string"
        },
        {
          "internalType": "string",
          "name": "link",
          "type": "string"
        },
        {
          "internalType": "uint256",
          "name": "timestamp",
          "type": "uint256"
        },
        {
          "internalType": "address",
          "name": "author",
          "type": "address"
        },
        {
          "internalType": "string",
          "name": "category",
          "type": "string"
        },
        {
          "internalType": "uint256",
          "name": "id",
          "type": "uint256"
        }
      ],
      "stateMutability": "view",
      "type": "function"
    },
    {
      "inputs": [
        {
          "internalType": "uint256",
          "name": "",
          "type": "uint256"
        }
      ],
      "name": "idToPodcast",
      "outputs": [
        {
          "internalType": "string",
          "name": "name",
          "type": "string"
        },
        {
          "internalType": "string",
          "name": "link",
          "type": "string"
        },
        {
          "internalType": "uint256",
          "name": "timestamp",
          "type": "uint256"
        },
        {
          "internalType": "address",
          "name": "author",
          "type": "address"
        },
        {
          "internalType": "string",
          "name": "category",
          "type": "string"
        },
        {
          "internalType": "uint256",
          "name": "id",
          "type": "uint256"
        }
      ],
      "stateMutability": "view",
      "type": "function"
    },
    {
      "inputs": [
        {
          "internalType": "address",
          "name": "owner",
          "type": "address"
        },
        {
          "internalType": "address",
          "name": "operator",
          "type": "address"
        }
      ],
      "name": "isApprovedForAll",
      "outputs": [
        {
          "internalType": "bool",
          "name": "",
          "type": "bool"
        }
      ],
      "stateMutability": "view",
      "type": "function"
    },
    {
      "inputs": [
        {
          "internalType": "string",
          "name": "",
          "type": "string"
        }
      ],
      "name": "linkToPodcast",
      "outputs": [
        {
          "internalType": "string",
          "name": "name",
          "type": "string"
        },
        {
          "internalType": "string",
          "name": "link",
          "type": "string"
        },
        {
          "internalType": "uint256",
          "name": "timestamp",
          "type": "uint256"
        },
        {
          "internalType": "address",
          "name": "author",
          "type": "address"
        },
        {
          "internalType": "string",
          "name": "category",
          "type": "string"
        },
        {
          "internalType": "uint256",
          "name": "id",
          "type": "uint256"
        }
      ],
      "stateMutability": "view",
      "type": "function"
    },
    {
      "inputs": [
        {
          "internalType": "string",
          "name": "tokenURI",
          "type": "string"
        },
        {
          "internalType": "uint256",
          "name": "id",
          "type": "uint256"
        }
      ],
      "name": "makeNFT",
      "outputs": [
        {
          "internalType": "uint256",
          "name": "",
          "type": "uint256"
        }
      ],
      "stateMutability": "nonpayable",
      "type": "function"
    },
    {
      "inputs": [
        {
          "internalType": "uint256",
          "name": "",
          "type": "uint256"
        }
      ],
      "name": "misc",
      "outputs": [
        {
          "internalType": "string",
          "name": "name",
          "type": "string"
        },
        {
          "internalType": "string",
          "name": "link",
          "type": "string"
        },
        {
          "internalType": "uint256",
          "name": "timestamp",
          "type": "uint256"
        },
        {
          "internalType": "address",
          "name": "author",
          "type": "address"
        },
        {
          "internalType": "string",
          "name": "category",
          "type": "string"
        },
        {
          "internalType": "uint256",
          "name": "id",
          "type": "uint256"
        }
      ],
      "stateMutability": "view",
      "type": "function"
    },
    {
      "inputs": [],
      "name": "name",
      "outputs": [
        {
          "internalType": "string",
          "name": "",
          "type": "string"
        }
      ],
      "stateMutability": "view",
      "type": "function"
    },
    {
      "inputs": [
        {
          "internalType": "uint256",
          "name": "tokenId",
          "type": "uint256"
        }
      ],
      "name": "ownerOf",
      "outputs": [
        {
          "internalType": "address",
          "name": "",
          "type": "address"
        }
      ],
      "stateMutability": "view",
      "type": "function"
    },
    {
      "inputs": [
        {
          "internalType": "uint256",
          "name": "",
          "type": "uint256"
        }
      ],
      "name": "podcastToNFT",
      "outputs": [
        {
          "internalType": "bool",
          "name": "",
          "type": "bool"
        }
      ],
      "stateMutability": "view",
      "type": "function"
    },
    {
      "inputs": [
        {
          "internalType": "string",
          "name": "",
          "type": "string"
        }
      ],
      "name": "podcastToUser",
      "outputs": [
        {
          "internalType": "address",
          "name": "",
          "type": "address"
        }
      ],
      "stateMutability": "view",
      "type": "function"
    },
    {
      "inputs": [
        {
          "internalType": "string",
          "name": "podcastLink",
          "type": "string"
        },
        {
          "internalType": "string",
          "name": "name",
          "type": "string"
        },
        {
          "internalType": "string",
          "name": "category",
          "type": "string"
        }
      ],
      "name": "publishPodcast",
      "outputs": [],
      "stateMutability": "nonpayable",
      "type": "function"
    },
    {
      "inputs": [
        {
          "internalType": "address",
          "name": "from",
          "type": "address"
        },
        {
          "internalType": "address",
          "name": "to",
          "type": "address"
        },
        {
          "internalType": "uint256",
          "name": "tokenId",
          "type": "uint256"
        }
      ],
      "name": "safeTransferFrom",
      "outputs": [],
      "stateMutability": "nonpayable",
      "type": "function"
    },
    {
      "inputs": [
        {
          "internalType": "address",
          "name": "from",
          "type": "address"
        },
        {
          "internalType": "address",
          "name": "to",
          "type": "address"
        },
        {
          "internalType": "uint256",
          "name": "tokenId",
          "type": "uint256"
        },
        {
          "internalType": "bytes",
          "name": "_data",
          "type": "bytes"
        }
      ],
      "name": "safeTransferFrom",
      "outputs": [],
      "stateMutability": "nonpayable",
      "type": "function"
    },
    {
      "inputs": [
        {
          "internalType": "address",
          "name": "operator",
          "type": "address"
        },
        {
          "internalType": "bool",
          "name": "approved",
          "type": "bool"
        }
      ],
      "name": "setApprovalForAll",
      "outputs": [],
      "stateMutability": "nonpayable",
      "type": "function"
    },
    {
      "inputs": [
        {
          "internalType": "bytes4",
          "name": "interfaceId",
          "type": "bytes4"
        }
      ],
      "name": "supportsInterface",
      "outputs": [
        {
          "internalType": "bool",
          "name": "",
          "type": "bool"
        }
      ],
      "stateMutability": "view",
      "type": "function"
    },
    {
      "inputs": [],
      "name": "symbol",
      "outputs": [
        {
          "internalType": "string",
          "name": "",
          "type": "string"
        }
      ],
      "stateMutability": "view",
      "type": "function"
    },
    {
      "inputs": [
        {
          "internalType": "uint256",
          "name": "",
          "type": "uint256"
        }
      ],
      "name": "tech",
      "outputs": [
        {
          "internalType": "string",
          "name": "name",
          "type": "string"
        },
        {
          "internalType": "string",
          "name": "link",
          "type": "string"
        },
        {
          "internalType": "uint256",
          "name": "timestamp",
          "type": "uint256"
        },
        {
          "internalType": "address",
          "name": "author",
          "type": "address"
        },
        {
          "internalType": "string",
          "name": "category",
          "type": "string"
        },
        {
          "internalType": "uint256",
          "name": "id",
          "type": "uint256"
        }
      ],
      "stateMutability": "view",
      "type": "function"
    },
    {
      "inputs": [
        {
          "internalType": "address",
          "name": "author",
          "type": "address"
        }
      ],
      "name": "tip",
      "outputs": [],
      "stateMutability": "payable",
      "type": "function"
    },
    {
      "inputs": [
        {
          "internalType": "uint256",
          "name": "tokenId",
          "type": "uint256"
        }
      ],
      "name": "tokenURI",
      "outputs": [
        {
          "internalType": "string",
          "name": "",
          "type": "string"
        }
      ],
      "stateMutability": "view",
      "type": "function"
    },
    {
      "inputs": [
        {
          "internalType": "address",
          "name": "from",
          "type": "address"
        },
        {
          "internalType": "address",
          "name": "to",
          "type": "address"
        },
        {
          "internalType": "uint256",
          "name": "tokenId",
          "type": "uint256"
        }
      ],
      "name": "transferFrom",
      "outputs": [],
      "stateMutability": "nonpayable",
      "type": "function"
    },
    {
      "inputs": [
        {
          "internalType": "address",
          "name": "",
          "type": "address"
        },
        {
          "internalType": "uint256",
          "name": "",
          "type": "uint256"
        }
      ],
      "name": "userToPodcasts",
      "outputs": [
        {
          "internalType": "string",
          "name": "name",
          "type": "string"
        },
        {
          "internalType": "string",
          "name": "link",
          "type": "string"
        },
        {
          "internalType": "uint256",
          "name": "timestamp",
          "type": "uint256"
        },
        {
          "internalType": "address",
          "name": "author",
          "type": "address"
        },
        {
          "internalType": "string",
          "name": "category",
          "type": "string"
        },
        {
          "internalType": "uint256",
          "name": "id",
          "type": "uint256"
        }
      ],
      "stateMutability": "view",
      "type": "function"
    }
  ],
  "bytecode": "0x608060405260006008553480156200001657600080fd5b506040805180820182526009815268109b1bd8dad0d85cdd60ba1b602080830191825283518085019094526002845261424360f01b908401528151919291620000629160009162000081565b5080516200007890600190602084019062000081565b50505062000164565b8280546200008f9062000127565b90600052602060002090601f016020900481019282620000b35760008555620000fe565b82601f10620000ce57805160ff1916838001178555620000fe565b82800160010185558215620000fe579182015b82811115620000fe578251825591602001919060010190620000e1565b506200010c92915062000110565b5090565b5b808211156200010c576000815560010162000111565b600181811c908216806200013c57607f821691505b602082108114156200015e57634e487b7160e01b600052602260045260246000fd5b50919050565b6138e680620001746000396000f3fe6080604052600436106102045760003560e01c80636ee10c3511610118578063a7a38f0b116100a0578063b88d4fde1161006f578063b88d4fde14610621578063c83066ac14610641578063c87b56dd14610656578063e4b2ceed14610676578063e985e9c51461068b57600080fd5b8063a7a38f0b146105b9578063ac733ef7146105d9578063acb62f70146105ec578063af42527f1461060157600080fd5b80639345306b116100e75780639345306b1461051457806395d89b41146105345780639736a515146105495780639b73baee14610579578063a22cb4651461059957600080fd5b80636ee10c351461048457806370a08231146104a45780637cc096bb146104d2578063872434f4146104ff57600080fd5b806332886a5c1161019b57806342842e0e1161016a57806342842e0e146103e457806349e82210146104045780634a8f418c146104245780636114730c146104445780636352211e1461046457600080fd5b806332886a5c1461035d578063342add1d1461037257806336a92ae2146103a45780633dc4b782146103c457600080fd5b806314532b02116101d757806314532b02146102ba5780631ced4333146102fb57806323b872dd1461031d5780632f5723c41461033d57600080fd5b806301ffc9a71461020957806306fdde031461023e578063081812fc14610260578063095ea7b314610298575b600080fd5b34801561021557600080fd5b50610229610224366004613376565b6106d4565b60405190151581526020015b60405180910390f35b34801561024a57600080fd5b50610253610726565b6040516102359190613650565b34801561026c57600080fd5b5061028061027b3660046134a8565b6107b8565b6040516001600160a01b039091168152602001610235565b3480156102a457600080fd5b506102b86102b336600461334d565b610845565b005b3480156102c657600080fd5b506102806102d53660046133ae565b8051602081830181018051600f825292820191909301209152546001600160a01b031681565b34801561030757600080fd5b5061031061095b565b60405161023591906135ef565b34801561032957600080fd5b506102b861033836600461325f565b610b9b565b34801561034957600080fd5b506102806103583660046133ae565b610bcc565b34801561036957600080fd5b50610310610bfd565b34801561037e57600080fd5b5061039261038d3660046134a8565b610e34565b60405161023596959493929190613663565b3480156103b057600080fd5b506103926103bf36600461334d565b611026565b3480156103d057600080fd5b506103926103df3660046134a8565b611066565b3480156103f057600080fd5b506102b86103ff36600461325f565b611081565b34801561041057600080fd5b506102b861041f3660046133e1565b61109c565b34801561043057600080fd5b5061039261043f3660046133ae565b61187f565b34801561045057600080fd5b5061039261045f3660046134a8565b6118a5565b34801561047057600080fd5b5061028061047f3660046134a8565b6118b5565b34801561049057600080fd5b5061039261049f3660046134a8565b61192c565b3480156104b057600080fd5b506104c46104bf366004613213565b61193c565b604051908152602001610235565b3480156104de57600080fd5b506104f26104ed3660046134a8565b6119c3565b6040516102359190613769565b34801561050b57600080fd5b50610310611bcb565b34801561052057600080fd5b506104c461052f366004613465565b611e02565b34801561054057600080fd5b50610253611ea7565b34801561055557600080fd5b506102296105643660046134a8565b60126020526000908152604090205460ff1681565b34801561058557600080fd5b506104f26105943660046133ae565b611eb6565b3480156105a557600080fd5b506102b86105b4366004613313565b611ef7565b3480156105c557600080fd5b506103926105d43660046134a8565b611f06565b6102b86105e7366004613213565b611f16565b3480156105f857600080fd5b50610310611f4b565b34801561060d57600080fd5b5061039261061c3660046134a8565b61218d565b34801561062d57600080fd5b506102b861063c36600461329a565b61219d565b34801561064d57600080fd5b506103106121d5565b34801561066257600080fd5b506102536106713660046134a8565b61240c565b34801561068257600080fd5b50610310612583565b34801561069757600080fd5b506102296106a636600461322d565b6001600160a01b03918216600090815260056020908152604080832093909416825291909152205460ff1690565b60006001600160e01b031982166380ac58cd60e01b148061070557506001600160e01b03198216635b5e139f60e01b145b8061072057506301ffc9a760e01b6001600160e01b03198316145b92915050565b606060008054610735906137eb565b80601f0160208091040260200160405190810160405280929190818152602001828054610761906137eb565b80156107ae5780601f10610783576101008083540402835291602001916107ae565b820191906000526020600020905b81548152906001019060200180831161079157829003601f168201915b5050505050905090565b60006107c3826127ba565b6108295760405162461bcd60e51b815260206004820152602c60248201527f4552433732313a20617070726f76656420717565727920666f72206e6f6e657860448201526b34b9ba32b73a103a37b5b2b760a11b60648201526084015b60405180910390fd5b506000908152600460205260409020546001600160a01b031690565b6000610850826118b5565b9050806001600160a01b0316836001600160a01b031614156108be5760405162461bcd60e51b815260206004820152602160248201527f4552433732313a20617070726f76616c20746f2063757272656e74206f776e656044820152603960f91b6064820152608401610820565b336001600160a01b03821614806108da57506108da81336106a6565b61094c5760405162461bcd60e51b815260206004820152603860248201527f4552433732313a20617070726f76652063616c6c6572206973206e6f74206f7760448201527f6e6572206e6f7220617070726f76656420666f7220616c6c00000000000000006064820152608401610820565b61095683836127d7565b505050565b6060600b805480602002602001604051908101604052809291908181526020016000905b82821015610b9257838290600052602060002090600602016040518060c00160405290816000820180546109b2906137eb565b80601f01602080910402602001604051908101604052809291908181526020018280546109de906137eb565b8015610a2b5780601f10610a0057610100808354040283529160200191610a2b565b820191906000526020600020905b815481529060010190602001808311610a0e57829003601f168201915b50505050508152602001600182018054610a44906137eb565b80601f0160208091040260200160405190810160405280929190818152602001828054610a70906137eb565b8015610abd5780601f10610a9257610100808354040283529160200191610abd565b820191906000526020600020905b815481529060010190602001808311610aa057829003601f168201915b50505091835250506002820154602082015260038201546001600160a01b03166040820152600482018054606090920191610af7906137eb565b80601f0160208091040260200160405190810160405280929190818152602001828054610b23906137eb565b8015610b705780601f10610b4557610100808354040283529160200191610b70565b820191906000526020600020905b815481529060010190602001808311610b5357829003601f168201915b505050505081526020016005820154815250508152602001906001019061097f565b50505050905090565b610ba53382612845565b610bc15760405162461bcd60e51b815260040161082090613718565b61095683838361292b565b6000600f82604051610bde9190613567565b908152604051908190036020019020546001600160a01b031692915050565b60606009805480602002602001604051908101604052809291908181526020016000905b82821015610b9257838290600052602060002090600602016040518060c0016040529081600082018054610c54906137eb565b80601f0160208091040260200160405190810160405280929190818152602001828054610c80906137eb565b8015610ccd5780601f10610ca257610100808354040283529160200191610ccd565b820191906000526020600020905b815481529060010190602001808311610cb057829003601f168201915b50505050508152602001600182018054610ce6906137eb565b80601f0160208091040260200160405190810160405280929190818152602001828054610d12906137eb565b8015610d5f5780601f10610d3457610100808354040283529160200191610d5f565b820191906000526020600020905b815481529060010190602001808311610d4257829003601f168201915b50505091835250506002820154602082015260038201546001600160a01b03166040820152600482018054606090920191610d99906137eb565b80601f0160208091040260200160405190810160405280929190818152602001828054610dc5906137eb565b8015610e125780601f10610de757610100808354040283529160200191610e12565b820191906000526020600020905b815481529060010190602001808311610df557829003601f168201915b5050505050815260200160058201548152505081526020019060010190610c21565b600a8181548110610e4457600080fd5b9060005260206000209060060201600091509050806000018054610e67906137eb565b80601f0160208091040260200160405190810160405280929190818152602001828054610e93906137eb565b8015610ee05780601f10610eb557610100808354040283529160200191610ee0565b820191906000526020600020905b815481529060010190602001808311610ec357829003601f168201915b505050505090806001018054610ef5906137eb565b80601f0160208091040260200160405190810160405280929190818152602001828054610f21906137eb565b8015610f6e5780601f10610f4357610100808354040283529160200191610f6e565b820191906000526020600020905b815481529060010190602001808311610f5157829003601f168201915b5050505060028301546003840154600485018054949592946001600160a01b03909216935090610f9d906137eb565b80601f0160208091040260200160405190810160405280929190818152602001828054610fc9906137eb565b80156110165780601f10610feb57610100808354040283529160200191611016565b820191906000526020600020905b815481529060010190602001808311610ff957829003601f168201915b5050505050908060050154905086565b600e602052816000526040600020818154811061104257600080fd5b906000526020600020906006020160009150915050806000018054610e67906137eb565b601160205260009081526040902080548190610e67906137eb565b6109568383836040518060200160405280600081525061219d565b6008546110aa90600161377c565b6008819055336000818152600e60209081526040808320815160c0810183528881528084018a9052429281019290925260608201949094526080810186905260a08101949094528254600181018455928252908190208351805160069094029091019261111a928492019061308a565b506020828101518051611133926001850192019061308a565b506040820151600282015560608201516003820180546001600160a01b0319166001600160a01b039092169190911790556080820151805161117f91600484019160209091019061308a565b5060a08201518160050155505033600f8460405161119d9190613567565b908152602001604051809103902060006101000a8154816001600160a01b0302191690836001600160a01b031602179055506040518060c00160405280838152602001848152602001428152602001336001600160a01b031681526020018281526020016008548152506010846040516112179190613567565b9081526020016040518091039020600082015181600001908051906020019061124192919061308a565b50602082810151805161125a926001850192019061308a565b506040820151600282015560608201516003820180546001600160a01b0319166001600160a01b03909216919091179055608082015180516112a691600484019160209091019061308a565b5060a0918201516005909101556040805160c081018252848152602080820187905242928201929092523360608201526080810184905260085492810192909252600d80546001810182556000919091528251805160069092027fd7b6990105719101dabeb77144f2a3385c8033acd3af97e9423a695e81ad1eb501926113329284929091019061308a565b50602082810151805161134b926001850192019061308a565b506040820151600282015560608201516003820180546001600160a01b0319166001600160a01b039092169190911790556080820151805161139791600484019160209091019061308a565b5060a091909101516005909101556040805180820190915260048152630e8cac6d60e31b6020918201528151908201207f72c3936f97a420f89c999b2f7642e9203ca44f2e72e4506f69a989a5250c826614156114e2576040805160c081018252838152602080820186905242928201929092523360608201526080810183905260085460a08201526009805460018101825560009190915281518051929360069092027f6e1540171b6c0c960b71a7020d9f60077f6af931a8bbf590da0223dacf75c7af019261146b928492019061308a565b506020828101518051611484926001850192019061308a565b506040820151600282015560608201516003820180546001600160a01b0319166001600160a01b03909216919091179055608082015180516114d091600484019160209091019061308a565b5060a082015181600501555050611764565b6040805180820190915260078152663334b1ba34b7b760c91b6020918201528151908201207f3c001e1a62b1655291a22111a950cdc5a253d44c9d612a2ad26b3d3d610cb6af14156115ab576040805160c081018252838152602080820186905242928201929092523360608201526080810183905260085460a0820152600a805460018101825560009190915281518051929360069092027fc65a7bb8d6351c1cf70c95a316cc6a92839c986682d98bc35f958f4883f9d2a8019261146b928492019061308a565b604080518082019091526007815266686973746f727960c81b6020918201528151908201207f5cb4ee416d23b95cd5367c15d6b361ec02394b3d48d629418b0e5e7eda6758581415611674576040805160c081018252838152602080820186905242928201929092523360608201526080810183905260085460a0820152600b805460018101825560009190915281518051929360069092027f0175b7a638427703f0dbe7bb9bbf987a2551717b34e79f33b5b1008d1fa01db9019261146b928492019061308a565b6040805160c081018252838152602080820186905242928201929092523360608201526080810183905260085460a0820152600c805460018101825560009190915281518051929360069092027fdf6966c971051c3d54ec59162606531493a51404a002842f56009d7e5cf4a8c701926116f1928492019061308a565b50602082810151805161170a926001850192019061308a565b506040820151600282015560608201516003820180546001600160a01b0319166001600160a01b039092169190911790556080820151805161175691600484019160209091019061308a565b5060a0820151816005015550505b6040805160c081018252838152602080820186905242828401523360608301526080820184905260085460a083018190526000908152601182529290922081518051929391926117b7928492019061308a565b5060208281015180516117d0926001850192019061308a565b506040820151600282015560608201516003820180546001600160a01b0319166001600160a01b039092169190911790556080820151805161181c91600484019160209091019061308a565b5060a0919091015160059091015560088054600090815260126020908152604091829020805460ff19169055915490519081527f6288e9245d37279366c66d42f66945a89b7dca7d32cebce9bebc26fcec1a6437910160405180910390a1505050565b8051602081830181018051601082529282019190930120915280548190610e67906137eb565b600d8181548110610e4457600080fd5b6000818152600260205260408120546001600160a01b0316806107205760405162461bcd60e51b815260206004820152602960248201527f4552433732313a206f776e657220717565727920666f72206e6f6e657869737460448201526832b73a103a37b5b2b760b91b6064820152608401610820565b60098181548110610e4457600080fd5b60006001600160a01b0382166119a75760405162461bcd60e51b815260206004820152602a60248201527f4552433732313a2062616c616e636520717565727920666f7220746865207a65604482015269726f206164647265737360b01b6064820152608401610820565b506001600160a01b031660009081526003602052604090205490565b6119cb61310e565b60008281526011602052604090819020815160c081019092528054829082906119f3906137eb565b80601f0160208091040260200160405190810160405280929190818152602001828054611a1f906137eb565b8015611a6c5780601f10611a4157610100808354040283529160200191611a6c565b820191906000526020600020905b815481529060010190602001808311611a4f57829003601f168201915b50505050508152602001600182018054611a85906137eb565b80601f0160208091040260200160405190810160405280929190818152602001828054611ab1906137eb565b8015611afe5780601f10611ad357610100808354040283529160200191611afe565b820191906000526020600020905b815481529060010190602001808311611ae157829003601f168201915b50505091835250506002820154602082015260038201546001600160a01b03166040820152600482018054606090920191611b38906137eb565b80601f0160208091040260200160405190810160405280929190818152602001828054611b64906137eb565b8015611bb15780601f10611b8657610100808354040283529160200191611bb1565b820191906000526020600020905b815481529060010190602001808311611b9457829003601f168201915b505050505081526020016005820154815250509050919050565b6060600a805480602002602001604051908101604052809291908181526020016000905b82821015610b9257838290600052602060002090600602016040518060c0016040529081600082018054611c22906137eb565b80601f0160208091040260200160405190810160405280929190818152602001828054611c4e906137eb565b8015611c9b5780601f10611c7057610100808354040283529160200191611c9b565b820191906000526020600020905b815481529060010190602001808311611c7e57829003601f168201915b50505050508152602001600182018054611cb4906137eb565b80601f0160208091040260200160405190810160405280929190818152602001828054611ce0906137eb565b8015611d2d5780601f10611d0257610100808354040283529160200191611d2d565b820191906000526020600020905b815481529060010190602001808311611d1057829003601f168201915b50505091835250506002820154602082015260038201546001600160a01b03166040820152600482018054606090920191611d67906137eb565b80601f0160208091040260200160405190810160405280929190818152602001828054611d93906137eb565b8015611de05780601f10611db557610100808354040283529160200191611de0565b820191906000526020600020905b815481529060010190602001808311611dc357829003601f168201915b5050505050815260200160058201548152505081526020019060010190611bef565b60008181526012602052604081205460ff1615611e1e57600080fd5b611e2c600780546001019055565b6000611e3760075490565b9050611e433382612acb565b611e4d8185612bfe565b60008381526012602052604090819020805460ff19166001179055517fdf877f75a3c0269c369775aabf46bcfb3a16f37aa7c5de64a2e60161c2afd49d90611e989085815260200190565b60405180910390a19392505050565b606060018054610735906137eb565b611ebe61310e565b601082604051611ece9190613567565b90815260200160405180910390206040518060c00160405290816000820180546119f3906137eb565b611f02338383612c89565b5050565b600b8181548110610e4457600080fd5b6040516001600160a01b038216903480156108fc02916000818181858888f19350505050158015611f02573d6000803e3d6000fd5b336000908152600e60209081526040808320805482518185028101850190935280835260609492939192909184015b82821015610b9257838290600052602060002090600602016040518060c0016040529081600082018054611fad906137eb565b80601f0160208091040260200160405190810160405280929190818152602001828054611fd9906137eb565b80156120265780601f10611ffb57610100808354040283529160200191612026565b820191906000526020600020905b81548152906001019060200180831161200957829003601f168201915b5050505050815260200160018201805461203f906137eb565b80601f016020809104026020016040519081016040528092919081815260200182805461206b906137eb565b80156120b85780601f1061208d576101008083540402835291602001916120b8565b820191906000526020600020905b81548152906001019060200180831161209b57829003601f168201915b50505091835250506002820154602082015260038201546001600160a01b031660408201526004820180546060909201916120f2906137eb565b80601f016020809104026020016040519081016040528092919081815260200182805461211e906137eb565b801561216b5780601f106121405761010080835404028352916020019161216b565b820191906000526020600020905b81548152906001019060200180831161214e57829003601f168201915b5050505050815260200160058201548152505081526020019060010190611f7a565b600c8181548110610e4457600080fd5b6121a73383612845565b6121c35760405162461bcd60e51b815260040161082090613718565b6121cf84848484612d58565b50505050565b6060600d805480602002602001604051908101604052809291908181526020016000905b82821015610b9257838290600052602060002090600602016040518060c001604052908160008201805461222c906137eb565b80601f0160208091040260200160405190810160405280929190818152602001828054612258906137eb565b80156122a55780601f1061227a576101008083540402835291602001916122a5565b820191906000526020600020905b81548152906001019060200180831161228857829003601f168201915b505050505081526020016001820180546122be906137eb565b80601f01602080910402602001604051908101604052809291908181526020018280546122ea906137eb565b80156123375780601f1061230c57610100808354040283529160200191612337565b820191906000526020600020905b81548152906001019060200180831161231a57829003601f168201915b50505091835250506002820154602082015260038201546001600160a01b03166040820152600482018054606090920191612371906137eb565b80601f016020809104026020016040519081016040528092919081815260200182805461239d906137eb565b80156123ea5780601f106123bf576101008083540402835291602001916123ea565b820191906000526020600020905b8154815290600101906020018083116123cd57829003601f168201915b50505050508152602001600582015481525050815260200190600101906121f9565b6060612417826127ba565b61247d5760405162461bcd60e51b815260206004820152603160248201527f45524337323155524953746f726167653a2055524920717565727920666f72206044820152703737b732bc34b9ba32b73a103a37b5b2b760791b6064820152608401610820565b60008281526006602052604081208054612496906137eb565b80601f01602080910402602001604051908101604052809291908181526020018280546124c2906137eb565b801561250f5780601f106124e45761010080835404028352916020019161250f565b820191906000526020600020905b8154815290600101906020018083116124f257829003601f168201915b50505050509050600061252d60408051602081019091526000815290565b9050805160001415612540575092915050565b81511561257257808260405160200161255a929190613583565b60405160208183030381529060405292505050919050565b61257b84612d8b565b949350505050565b6060600c805480602002602001604051908101604052809291908181526020016000905b82821015610b9257838290600052602060002090600602016040518060c00160405290816000820180546125da906137eb565b80601f0160208091040260200160405190810160405280929190818152602001828054612606906137eb565b80156126535780601f1061262857610100808354040283529160200191612653565b820191906000526020600020905b81548152906001019060200180831161263657829003601f168201915b5050505050815260200160018201805461266c906137eb565b80601f0160208091040260200160405190810160405280929190818152602001828054612698906137eb565b80156126e55780601f106126ba576101008083540402835291602001916126e5565b820191906000526020600020905b8154815290600101906020018083116126c857829003601f168201915b50505091835250506002820154602082015260038201546001600160a01b0316604082015260048201805460609092019161271f906137eb565b80601f016020809104026020016040519081016040528092919081815260200182805461274b906137eb565b80156127985780601f1061276d57610100808354040283529160200191612798565b820191906000526020600020905b81548152906001019060200180831161277b57829003601f168201915b50505050508152602001600582015481525050815260200190600101906125a7565b6000908152600260205260409020546001600160a01b0316151590565b600081815260046020526040902080546001600160a01b0319166001600160a01b038416908117909155819061280c826118b5565b6001600160a01b03167f8c5be1e5ebec7d5bd14f71427d1e84f3dd0314c0f7b2291e5b200ac8c7c3b92560405160405180910390a45050565b6000612850826127ba565b6128b15760405162461bcd60e51b815260206004820152602c60248201527f4552433732313a206f70657261746f7220717565727920666f72206e6f6e657860448201526b34b9ba32b73a103a37b5b2b760a11b6064820152608401610820565b60006128bc836118b5565b9050806001600160a01b0316846001600160a01b031614806128f75750836001600160a01b03166128ec846107b8565b6001600160a01b0316145b8061257b57506001600160a01b0380821660009081526005602090815260408083209388168352929052205460ff1661257b565b826001600160a01b031661293e826118b5565b6001600160a01b0316146129a65760405162461bcd60e51b815260206004820152602960248201527f4552433732313a207472616e73666572206f6620746f6b656e2074686174206960448201526839903737ba1037bbb760b91b6064820152608401610820565b6001600160a01b038216612a085760405162461bcd60e51b8152602060048201526024808201527f4552433732313a207472616e7366657220746f20746865207a65726f206164646044820152637265737360e01b6064820152608401610820565b612a136000826127d7565b6001600160a01b0383166000908152600360205260408120805460019290612a3c9084906137a8565b90915550506001600160a01b0382166000908152600360205260408120805460019290612a6a90849061377c565b909155505060008181526002602052604080822080546001600160a01b0319166001600160a01b0386811691821790925591518493918716917fddf252ad1be2c89b69c2b068fc378daa952ba7f163c4a11628f55a4df523b3ef91a4505050565b6001600160a01b038216612b215760405162461bcd60e51b815260206004820181905260248201527f4552433732313a206d696e7420746f20746865207a65726f20616464726573736044820152606401610820565b612b2a816127ba565b15612b775760405162461bcd60e51b815260206004820152601c60248201527f4552433732313a20746f6b656e20616c7265616479206d696e746564000000006044820152606401610820565b6001600160a01b0382166000908152600360205260408120805460019290612ba090849061377c565b909155505060008181526002602052604080822080546001600160a01b0319166001600160a01b03861690811790915590518392907fddf252ad1be2c89b69c2b068fc378daa952ba7f163c4a11628f55a4df523b3ef908290a45050565b612c07826127ba565b612c6a5760405162461bcd60e51b815260206004820152602e60248201527f45524337323155524953746f726167653a2055524920736574206f66206e6f6e60448201526d32bc34b9ba32b73a103a37b5b2b760911b6064820152608401610820565b600082815260066020908152604090912082516109569284019061308a565b816001600160a01b0316836001600160a01b03161415612ceb5760405162461bcd60e51b815260206004820152601960248201527f4552433732313a20617070726f766520746f2063616c6c6572000000000000006044820152606401610820565b6001600160a01b03838116600081815260056020908152604080832094871680845294825291829020805460ff191686151590811790915591519182527f17307eab39ab6107e8899845ad3d59bd9653f200f220920489ca2b5937696c31910160405180910390a3505050565b612d6384848461292b565b612d6f84848484612e63565b6121cf5760405162461bcd60e51b8152600401610820906136c6565b6060612d96826127ba565b612dfa5760405162461bcd60e51b815260206004820152602f60248201527f4552433732314d657461646174613a2055524920717565727920666f72206e6f60448201526e3732bc34b9ba32b73a103a37b5b2b760891b6064820152608401610820565b6000612e1160408051602081019091526000815290565b90506000815111612e315760405180602001604052806000815250612e5c565b80612e3b84612f70565b604051602001612e4c929190613583565b6040516020818303038152906040525b9392505050565b60006001600160a01b0384163b15612f6557604051630a85bd0160e11b81526001600160a01b0385169063150b7a0290612ea79033908990889088906004016135b2565b602060405180830381600087803b158015612ec157600080fd5b505af1925050508015612ef1575060408051601f3d908101601f19168201909252612eee91810190613392565b60015b612f4b573d808015612f1f576040519150601f19603f3d011682016040523d82523d6000602084013e612f24565b606091505b508051612f435760405162461bcd60e51b8152600401610820906136c6565b805181602001fd5b6001600160e01b031916630a85bd0160e11b14905061257b565b506001949350505050565b606081612f945750506040805180820190915260018152600360fc1b602082015290565b8160005b8115612fbe5780612fa881613826565b9150612fb79050600a83613794565b9150612f98565b60008167ffffffffffffffff811115612fe757634e487b7160e01b600052604160045260246000fd5b6040519080825280601f01601f191660200182016040528015613011576020820181803683370190505b5090505b841561257b576130266001836137a8565b9150613033600a86613841565b61303e90603061377c565b60f81b81838151811061306157634e487b7160e01b600052603260045260246000fd5b60200101906001600160f81b031916908160001a905350613083600a86613794565b9450613015565b828054613096906137eb565b90600052602060002090601f0160209004810192826130b857600085556130fe565b82601f106130d157805160ff19168380011785556130fe565b828001600101855582156130fe579182015b828111156130fe5782518255916020019190600101906130e3565b5061310a92915061314d565b5090565b6040518060c0016040528060608152602001606081526020016000815260200160006001600160a01b0316815260200160608152602001600081525090565b5b8082111561310a576000815560010161314e565b600067ffffffffffffffff8084111561317d5761317d613881565b604051601f8501601f19908116603f011681019082821181831017156131a5576131a5613881565b816040528093508581528686860111156131be57600080fd5b858560208301376000602087830101525050509392505050565b80356001600160a01b03811681146131ef57600080fd5b919050565b600082601f830112613204578081fd5b612e5c83833560208501613162565b600060208284031215613224578081fd5b612e5c826131d8565b6000806040838503121561323f578081fd5b613248836131d8565b9150613256602084016131d8565b90509250929050565b600080600060608486031215613273578081fd5b61327c846131d8565b925061328a602085016131d8565b9150604084013590509250925092565b600080600080608085870312156132af578081fd5b6132b8856131d8565b93506132c6602086016131d8565b925060408501359150606085013567ffffffffffffffff8111156132e8578182fd5b8501601f810187136132f8578182fd5b61330787823560208401613162565b91505092959194509250565b60008060408385031215613325578182fd5b61332e836131d8565b915060208301358015158114613342578182fd5b809150509250929050565b6000806040838503121561335f578182fd5b613368836131d8565b946020939093013593505050565b600060208284031215613387578081fd5b8135612e5c81613897565b6000602082840312156133a3578081fd5b8151612e5c81613897565b6000602082840312156133bf578081fd5b813567ffffffffffffffff8111156133d5578182fd5b61257b848285016131f4565b6000806000606084860312156133f5578283fd5b833567ffffffffffffffff8082111561340c578485fd5b613418878388016131f4565b9450602086013591508082111561342d578384fd5b613439878388016131f4565b9350604086013591508082111561344e578283fd5b5061345b868287016131f4565b9150509250925092565b60008060408385031215613477578182fd5b823567ffffffffffffffff81111561348d578283fd5b613499858286016131f4565b95602094909401359450505050565b6000602082840312156134b9578081fd5b5035919050565b600081518084526134d88160208601602086016137bf565b601f01601f19169290920160200192915050565b6000815160c0845261350160c08501826134c0565b90506020830151848203602086015261351a82826134c0565b9150506040830151604085015260018060a01b0360608401511660608501526080830151848203608086015261355082826134c0565b91505060a083015160a08501528091505092915050565b600082516135798184602087016137bf565b9190910192915050565b600083516135958184602088016137bf565b8351908301906135a98183602088016137bf565b01949350505050565b6001600160a01b03858116825284166020820152604081018390526080606082018190526000906135e5908301846134c0565b9695505050505050565b6000602080830181845280855180835260408601915060408160051b8701019250838701855b8281101561364357603f198886030184526136318583516134ec565b94509285019290850190600101613615565b5092979650505050505050565b602081526000612e5c60208301846134c0565b60c08152600061367660c08301896134c0565b828103602084015261368881896134c0565b604084018890526001600160a01b0387166060850152838103608085015290506136b281866134c0565b9150508260a0830152979650505050505050565b60208082526032908201527f4552433732313a207472616e7366657220746f206e6f6e20455243373231526560408201527131b2b4bb32b91034b6b83632b6b2b73a32b960711b606082015260800190565b60208082526031908201527f4552433732313a207472616e736665722063616c6c6572206973206e6f74206f6040820152701ddb995c881b9bdc88185c1c1c9bdd9959607a1b606082015260800190565b602081526000612e5c60208301846134ec565b6000821982111561378f5761378f613855565b500190565b6000826137a3576137a361386b565b500490565b6000828210156137ba576137ba613855565b500390565b60005b838110156137da5781810151838201526020016137c2565b838111156121cf5750506000910152565b600181811c908216806137ff57607f821691505b6020821081141561382057634e487b7160e01b600052602260045260246000fd5b50919050565b600060001982141561383a5761383a613855565b5060010190565b6000826138505761385061386b565b500690565b634e487b7160e01b600052601160045260246000fd5b634e487b7160e01b600052601260045260246000fd5b634e487b7160e01b600052604160045260246000fd5b6001600160e01b0319811681146138ad57600080fd5b5056fea2646970667358221220890054345980cbf5fcb448b14ea14eba4ae555e57450e4274aacec8cfff56af364736f6c63430008040033",
  "linkReferences": {},
  "deployedLinkReferences": {}
}